:100000000C9434000C943E000C943E000C943E0082
:100010000C943E000C943E000C943E000C943E0068
:100020000C943E000C943E000C943E000C943E0058
:100030000C943E000C9440000C943E000C943E0046
:100040000C943E000C943E000C943E000C943E0038
:100050000C943E000C943E000C943E000C943E0028
:100060000C943E000C943E0011241FBECFEFD8E04C
:10007000DEBFCDBF0E9452000C94A7000C9400007C
:100080001F920F920FB60F9211248F939F9385B1F9
:1000900090E2892785B99F918F910F900FBE0F90A5
:1000A0001F9018958FEF84B981E080936F008DEDDC
:1000B0009BE090938500809384001092800084E000
:1000C00080938100789444E050E0A1E0B0E060E9E2
:1000D00071E019C025B1CD01042E02C0880F991F0F
:1000E0000A94E2F7982F282B25B920ED37E0FB0181
:1000F0003197F1F721503040D1F785B19095982391
:1001000095B9415050401416150624F342E050E0D2
:1001100025B1CD01042E02C0880F991F0A94E2F781
:10012000982F282B25B920ED37E0FB013197F1F707
:1001300021503040D1F785B19095982395B94F5F04
:100140005F4F4430510521F744E050E0C3CFF894AD
:02015000FFCFDF
:00000001FF
