:100000000C9434000C9446000C9446000C9446006A
:100010000C9446000C9446000C9446000C94460048
:100020000C9446000C9446000C9446000C94460038
:100030000C9446000C945A000C9446000C94460014
:100040000C9446000C9446000C9446000C94460018
:100050000C9446000C9446000C9446000C94460008
:100060000C9446000C94460011241FBECFEFD8E03C
:10007000DEBFCDBF11E0A0E0B1E001C01D92A23013
:10008000B107E1F70E9448000C947B000C9400003B
:100090008FEF84B981E080936F0080EE91EB9093B5
:1000A0008500809384001092800082E0809381001C
:1000B0007894FFCF1F920F920FB60F9211248F9357
:1000C0009F9380910001909101010196909301010D
:1000D000809300010A9741F485B190E2892785B9A0
:1000E00010920101109200019F918F910F900FBE0D
:0A00F0000F901F901895F894FFCFB1
:00000001FF
