:100000000C9434000C9446000C9446000C9446006A
:100010000C9446000C9446000C9446000C94460048
:100020000C9446000C9446000C9446000C94460038
:100030000C9446000C9482000C9446000C944600EC
:100040000C9461000C9446000C9446000C944600FD
:100050000C9446000C9446000C9446000C94460008
:100060000C9446000C94460011241FBECFEFD8E03C
:10007000DEBFCDBF11E0A0E0B1E001C01D92A43011
:10008000B107E1F70E9448000C94A3000C94000013
:100090008FEF84B981E080936E0080936F0083E8D6
:1000A00086BD80EE91EB909385008093840014BC14
:1000B00084E085BD1092800082E080938100789476
:1000C000FFCF1F920F920FB60F9211248F939F9321
:1000D0008091020190910301019690930301809316
:1000E0000201499741F485B194E0892785B91092BE
:1000F0000301109202019F918F910F900FBE0F90FC
:100100001F9018951F920F920FB60F9211248F9384
:100110009F938091000190910101019690930101BC
:1001200080930001C29741F485B192E0892785B997
:1001300010920101109200019F918F910F900FBEBC
:0A0140000F901F901895F894FFCF60
:00000001FF
