:100000000C9434000C943E000C943E000C943E0082
:100010000C943E000C943E000C943E000C943E0068
:100020000C943E000C943E000C943E000C943E0058
:100030000C943E000C943E000C943E000C943E0048
:100040000C943E000C943E000C943E000C943E0038
:100050000C943E000C943E000C943E000C943E0028
:100060000C943E000C943E0011241FBECFEFD8E04C
:10007000DEBFCDBF0E9446000C9453000C940000DC
:1000800016BC14BC81E085BD85BB0895259A81E02E
:100090002D9A16BC14BC85BD85BB2D9816BC14BC0E
:0A00A00085BD85BBF5CFF894FFCFB6
:00000001FF
