:100000000C9434000C9465000C948E000C94460003
:100010000C9446000C9446000C9446000C94460048
:100020000C9446000C9446000C9446000C94460038
:100030000C9446000C9446000C9446000C94460028
:100040000C9446000C9446000C9446000C94460018
:100050000C9446000C9446000C9446000C94460008
:100060000C9446000C94460011241FBECFEFD8E03C
:10007000DEBFCDBF11E0A0E0B1E001C01D92A23013
:10008000B107E1F70E9448000C94B8000C940000FE
:100090005298539884B18FEF84B98091690082603F
:1000A00080936900809169008160809369008091EC
:1000B0006900886080936900809169008460809302
:1000C00069007894E89AE99AFFCF1F920F920FB6D1
:1000D0000F9211242F933F934F938F939F9345B18A
:1000E000209100013091010181E090E0022E02C0D8
:1000F000880F991F0A94E2F7482B45B92F5F3F4FAD
:1001000030930101209300019F918F914F913F9176
:100110002F910F900FBE0F901F9018951F920F9266
:100120000FB60F9211242F933F934F938F939F936A
:1001300045B1209100013091010181E090E0022E53
:1001400002C0880F991F0A94E2F78095842385B92D
:100150002F5F3F4F30930101209300019F918F91BA
:100160004F913F912F910F900FBE0F901F901895B8
:04017000F894FFCF31
:00000001FF
