:100000000C9434000C944F000C943E000C943E0071
:100010000C943E000C943E000C943E000C943E0068
:100020000C943E000C943E000C943E000C943E0058
:100030000C943E000C943E000C943E000C943E0048
:100040000C943E000C943E000C943E000C943E0038
:100050000C943E000C943E000C943E000C943E0028
:100060000C943E000C943E0011241FBECFEFD8E04C
:10007000DEBFCDBF0E9440000C945E000C940000D7
:100080005298209A809169008260809369008091E3
:1000900069008E7F809369007894E89AFFCF1F9261
:1000A0000F920FB60F9211248F9385B1809585B969
:1000B0008F910F900FBE0F901F901895F894FFCF5F
:00000001FF
