:100000000C9434000C9451000C943E000C943E006F
:100010000C943E000C943E000C943E000C943E0068
:100020000C943E000C943E000C943E000C943E0058
:100030000C943E000C943E000C943E000C943E0048
:100040000C943E000C943E000C943E000C943E0038
:100050000C943E000C943E000C943E000C943E0028
:100060000C943E000C943E0011241FBECFEFD8E04C
:10007000DEBFCDBF0E9440000C9460000C940000D5
:10008000529884B18FEF84B9809169008260809327
:100090006900809169008E7F809369007894E89A66
:1000A000FFCF1F920F920FB60F9211248F9385B13D
:1000B0008F5F85B98F910F900FBE0F901F9018958D
:0400C000F894FFCFE2
:00000001FF
