:100000000C9434000C943E000C943E000C943E0082
:100010000C943E000C943E000C943E000C943E0068
:100020000C943E000C943E000C943E000C943E0058
:100030000C943E000C943E000C943E000C943E0048
:100040000C943E000C943E000C943E000C943E0038
:100050000C943E000C943E000C943E000C943E0028
:100060000C943E000C943E0011241FBECFEFD8E04C
:10007000DEBFCDBF0E9440000C945B000C940000DA
:100080008AB18F678AB984B18FEF84B920ED37E0E8
:1000900040E951E005C0CA010197F1F72150304015
:1000A00021153105C1F74F9B03C085B18F5F85B91D
:0A00B00020ED37E0F0CFF894FFCF09
:00000001FF
