:100000000C9434000C943E000C943E000C943E0082
:100010000C943E000C943E000C943E000C943E0068
:100020000C943E000C943E000C943E000C943E0058
:100030000C943E000C943E000C943E000C943E0048
:100040000C943E000C943E000C943E000C943E0038
:100050000C943E000C943E000C943E000C943E0028
:100060000C943E000C943E0011241FBECFEFD8E04C
:10007000DEBFCDBF0E9440000C9484000C940000B1
:100080008FEF84B945E050E0A1E0B0E060E971E0B5
:1000900019C025B1CD01042E02C0880F991F0A9402
:1000A000E2F7982F282B25B920ED37E0FB01319797
:1000B000F1F721503040D1F785B19095982395B94B
:1000C000415050404230510524F743E050E025B103
:1000D000CD01042E02C0880F991F0A94E2F7982FD1
:1000E000282B25B920ED37E0FB013197F1F721509E
:1000F0003040D1F785B19095982395B94F5F5F4F08
:0C0100004530510521F7DECFF894FFCF09
:00000001FF
