:100000000C9472000C948B000C948B000C948B005D
:100010000C948B000C948B000C948B000C948B0034
:100020000C948B000C948B000C948B000C948B0024
:100030000C948B000C948B000C948B000C948B0014
:100040000C948B000C948B000C948B000C948B0004
:100050000C948B000C948B000C948B000C948B00F4
:100060000C948B000C948B000C948B000C948B00E4
:100070000C948B000C948B000C948B000C948B00D4
:100080000C948B000C948B000C948B000C948B00C4
:100090000C948B000C948B000C948B000C948B00B4
:1000A0000C948B000C948B000C948B000C948B00A4
:1000B0000C948B000C948B000C948B000C948B0094
:1000C0000C948B000C948B000C948B000C948B0084
:1000D0000C948B000C948B000C948B000C948B0074
:1000E0000C948B0011241FBECFEFD1E2DEBFCDBF39
:1000F00000E00CBF12E0A0E0B2E0E6EAF1E000E0D0
:100100000BBF02C007900D92A030B107D9F70E9433
:100110008D000C94D1000C9400008FEF84B945E061
:1001200050E0A1E0B0E060E971E019C025B1CD0177
:10013000042E02C0880F991F0A94E2F7982F282BEB
:1001400025B920ED37E0FB013197F1F72150304020
:10015000D1F785B19095982395B9415050404230E0
:10016000510524F743E050E025B1CD01042E02C033
:10017000880F991F0A94E2F7982F282B25B920EDB4
:1001800037E0FB013197F1F721503040D1F785B1CD
:100190009095982395B94F5F5F4F4530510521F7F2
:0601A000DECFF894FFCF52
:00000001FF
