:100000000C9434000C943E000C943E000C943E0082
:100010000C943E000C943E000C943E000C943E0068
:100020000C943E000C943E000C943E000C943E0058
:100030000C943E000C943E000C943E000C943E0048
:100040000C943E000C943E000C943E000C943E0038
:100050000C943E000C943E000C943E000C943E0028
:100060000C943E000C943E0011241FBECFEFD8E04C
:10007000DEBFCDBF0E9440000C9496000C9400009F
:10008000259A249A239A229A45E050E0A1E0B0E014
:1000900060E971E020C025B1CD01042E02C0880FB7
:1000A000991F0A94E2F7982F282B25B928EE33E000
:1000B000FB013197F1F721503040D1F785B1909590
:1000C000982395B988EE93E0FB013197F1F70197FA
:1000D000D9F74150504042305105ECF643E050E032
:1000E00025B1CD01042E02C0880F991F0A94E2F7B2
:1000F000982F282B25B928EE33E0FB013197F1F733
:1001000021503040D1F785B19095982395B988EE6C
:1001100093E0FB013197F1F70197D9F74F5F5F4FFC
:1001200045305105E9F645E050E0D5CFF894FFCFD2
:00000001FF
