:100000000C9434000C943E000C943E000C943E0082
:100010000C943E000C943E000C943E000C943E0068
:100020000C943E000C943E000C943E000C943E0058
:100030000C943E000C943E000C943E000C943E0048
:100040000C943E000C943E000C943E000C943E0038
:100050000C943E000C943E000C943E000C943E0028
:100060000C943E000C943E0011241FBECFEFD8E04C
:10007000DEBFCDBF0E9454000C946B000C940000B6
:100080008DED9BE09093850080938400109280001A
:1000900084E080938100B09BFECF1092800010928C
:1000A000810081E086BB08951F93569A93E094BD2A
:1000B00084B5806884BD95BD789410E004C017BDF8
:1000C0000E9440001F5F1F3FD1F717BD0E944000F4
:0A00D0001150D9F7F8CFF894FFCFD4
:00000001FF
